S0150000427265617A65436F6E74726F6C2E73726563D5
S11300000C9456000C9468000C9468000C946800DE
S11300100C9468000C9468000C9468000C946800BC
S11300200C9468000C9468000C9468000C946800AC
S11300300C9468000C9468000C9468000C9468009C
S11300400C9468000C9468000C9468000C9468008C
S11300500C9468000C9468000C9468000C9468007C
S11300600C9468000C9468000C9468000C9468006C
S11300700C9468000C9401020C9468000C946800C1
S11300800C9468000C9468000C9468000C9468004C
S11300900C9468000C9468000C9468000C9468003C
S11300A00C9468000C9468000C94680011241FBE22
S11300B0CFEFDAE0DEBFCDBF21E0A0E0B1E001C0C8
S11300C01D92A432B207E1F70E94F0010C941502CC
S11300D00C9400008330910509F449C03CF481304C
S11300E0910519F19CF5892B79F0089585309105D6
S11300F009F45FC00CF44CC08630910509F46AC061
S1130100079709F088C077C0EBE7F0E080818F7D26
S11301108083ECE7F0E080818B7F808380818D7F1A
S1130120808380818E7F80830895EBE7F0E0808177
S11301308F7D8083ECE7F0E080818B7F80838081FA
S11301408D7F80838081816080830895EBE7F0E078
S113015080818F7D8083ECE7F0E080818460808300
S113016080818D7F808380818E7F80830895EBE7FB
S1130170F0E080818F7D8083ECE7F0E08081846013
S1130180808380818D7F80838081816080830895D6
S1130190EBE7F0E080818F7D8083ECE7F0E0808105
S11301A08460808380818260808380818E7F80836D
S11301B00895EBE7F0E0808180628083ECE7F0E073
S11301C080818B7F808380818D7F808380818E7FFF
S11301D080830895EBE7F0E0808180628083ECE720
S11301E0F0E080818B7F808380818D7F808380811C
S11301F0816080830895EBE7F0E080818F7D8083C8
S1130200ECE7F0E080818460808380818260808379
S11302108081816080830895809100019091010123
S1130220892B09F49CC08091220190912301833091
S1130230910571F13CF481309105C1F004F5892BED
S113024061F052C085309105A9F15CF186309105C9
S1130250D1F1079709F048C03FC080917800909190
S1130260790090931101809310013EC08091780031
S11302709091790090930F0180930E0135C0809185
S113028078009091790090930D0180930C012CC01B
S1130290809178009091790090930B0180930A01EA
S11302A023C0809178009091790090930901809304
S11302B008011AC080917800909179009093070109
S11302C08093060111C080917800909179009093F9
S11302D005018093040108C0809178009091790011
S11302E09093030180930201EAE7F0E080818F7725
S11302F0808380818F7B808380818F7D80838081D8
S11303008F7E808380912201909123018830910512
S1130310A0F401969C0127703078332334F42150E3
S11303203109286F3F6F2F5F3F4F20932201309395
S11303302301822F932F0E946A00EAE7F0E0808174
S113034080628083808180688083808180648083F0
S1130350808180618083109201011092000180915C
S113036010019091110190931301809312018091D7
S11303700E0190910F0190931501809314018091C7
S11303800C0190910D0190931701809316018091B7
S11303900A0190910B0190931901809318018091A7
S11303A008019091090190931B0180931A01809197
S11303B006019091070190931D0180931C01809187
S11303C004019091050190931F0180931E01809177
S11303D002019091030190932101809320010895DB
S11303E0C0E42FEF81EE94E0215080409040E1F78B
S11303F000C000006E9A8EB18C278EB90E940C0149
S1130400F0CF1F920F920FB60F9211248F939F93E8
S113041081E090E090930101809300019F918F917E
S11104200F900FBE0F901F901895F894FFCF09
S9030000FC
