:100000000C9456000C9468000C9468000C946800E2
:100010000C9468000C9468000C9468000C946800C0
:100020000C9468000C9468000C9468000C946800B0
:100030000C9468000C9468000C9468000C946800A0
:100040000C9468000C9468000C9468000C94680090
:100050000C9468000C9468000C9468000C94680080
:100060000C9468000C9468000C9468000C94680070
:100070000C9468000C9427030C9468000C9468009E
:100080000C9468000C9468000C9468000C94680050
:100090000C9468000C9468000C9468000C94680040
:1000A0000C9468000C9468000C94680011241FBE26
:1000B000CFEFDAE0DEBFCDBF21E0A0E0B1E001C0CC
:1000C0001D92A932B207E1F70E9433020C94E504B5
:1000D0000C9400008330910509F449C03CF4813050
:1000E000910519F19CF5892B79F0089585309105DA
:1000F00009F45FC00CF44CC08630910509F46AC065
:10010000079709F088C077C0EBE7F0E080818F7D2A
:100110008083ECE7F0E080818B7F808380818D7F1E
:10012000808380818E7F80830895EBE7F0E080817B
:100130008F7D8083ECE7F0E080818B7F80838081FE
:100140008D7F80838081816080830895EBE7F0E07C
:1001500080818F7D8083ECE7F0E080818460808304
:1001600080818D7F808380818E7F80830895EBE7FF
:10017000F0E080818F7D8083ECE7F0E08081846017
:10018000808380818D7F80838081816080830895DA
:10019000EBE7F0E080818F7D8083ECE7F0E0808109
:1001A0008460808380818260808380818E7F808371
:1001B0000895EBE7F0E0808180628083ECE7F0E077
:1001C00080818B7F808380818D7F808380818E7F03
:1001D00080830895EBE7F0E0808180628083ECE724
:1001E000F0E080818B7F808380818D7F8083808120
:1001F000816080830895EBE7F0E080818F7D8083CC
:10020000ECE7F0E08081846080838081826080837D
:100210008081816080830895809100019091010127
:10022000892B09F49CC0809127019091280183308B
:10023000910571F13CF481309105C1F004F5892BF1
:1002400061F052C085309105A9F15CF186309105CD
:10025000D1F1079709F048C03FC080917800909194
:10026000790090931101809310013EC08091780035
:100270009091790090930F0180930E0135C0809189
:1002800078009091790090930D0180930C012CC01F
:10029000809178009091790090930B0180930A01EE
:1002A00023C0809178009091790090930901809308
:1002B00008011AC08091780090917900909307010D
:1002C0008093060111C080917800909179009093FD
:1002D00005018093040108C0809178009091790015
:1002E0009093030180930201EAE7F0E080818F7729
:1002F000808380818F7B808380818F7D80838081DC
:100300008F7E80838091270190912801883091050C
:10031000A0F401969C0127703078332334F42150E7
:100320003109286F3F6F2F5F3F4F20932701309394
:100330002801822F932F0E946A00EAE7F0E0808173
:1003400080628083808180688083808180648083F4
:100350008081806180831092010110920001809160
:1003600010019091110190931801809317018091D1
:100370000E0190910F0190931A01809319018091C1
:100380000C0190910D0190931C0180931B018091B1
:100390000A0190910B0190931E0180931D018091A1
:1003A0000801909109019093200180931F01809191
:1003B0000601909107019093220180932101809181
:1003C0000401909105019093240180932301809171
:1003D00002019091030190932601809325010895D5
:1003E000CF92DF92EF92FF926A017B01813019F088
:1003F000823031F403C02A9A2B9A02C02A982B9893
:10040000609188007091890080E090E00E94CC03A8
:10041000A70196010E945A040E94A00370938B00CA
:1004200060938A00609196007091970080E090E060
:100430000E94CC03A70196010E945A040E94A003C7
:1004400070939B0060939A00FF90EF90DF90CF90A5
:100450000895019719F422E030E002C021E030E075
:10046000822F932F0895E1E8F0E0808180618083FE
:10047000808188608083A0E8B0E08C9182608C935A
:100480008C9181608C938C9180628C938C918F7E07
:100490008C9380818B7F808380818D7F808380811E
:1004A000816080838FEF9FEF909389008093880015
:1004B00010928B0010928A00E1E9F0E02081206127
:1004C0002083208128602083A0E9B0E02C91226065
:1004D0002C932C912E7F2C932C9120682C932C9173
:1004E0002F7B2C9320812B7F208320812D7F2083C5
:1004F0002081216020839093970080939600109232
:10050000990010929800269A3E9A229A239A68940B
:10051000772476F80F2EF7E1EF2EF1E0FF2EF02D85
:1005200009E111E0552453946894662461F80F2E74
:1005300088248A94F3E09F2EF02D0F2EFFEDAF2E2E
:10054000B12CF02D0F2EFCEBCF2EF2E0DF2EF02D94
:100550002FEF81EE94E0215080409040E1F700C001
:1005600000006E9A8EB187258EB90E940C01F701AA
:1005700080819181F801C081D181C817D90724F405
:1005800050921601EC0102C060921601C032F3E0F5
:10059000DF073CF4CD3B22E0D207FCF010921601BD
:1005A000D7CF8091160190E00E9429028093160116
:1005B000C4018C1B9D0BB5010E94BD04882777FDEB
:1005C0008095982F0E94CE036093120170931301BF
:1005D00080931401909315011AC0CE01B6010E94B8
:1005E000BD04882777FD8095982F0E94CE039B013C
:1005F000AC0160E070E080E89FE30E943B03609301
:10060000120170931301809314019093150180914E
:100610001601813021F0823009F09ACF0CC0409150
:100620001201509113016091140170911501852DF3
:100630000E94F0018DCF4091120150911301609101
:10064000140170911501862D0E94F00181CF1F9237
:100650000F920FB60F9211248F939F9381E090E039
:1006600090930101809300019F918F910F900FBE95
:100670000F901F9018955058BB27AA270ED0E0C0A6
:10068000D1D030F0D6D020F031F49F3F11F41EF4D9
:10069000C6C00EF4E095E7FBBCC0E92FE2D080F3C2
:1006A000BA17620773078407950718F071F49EF56F
:1006B000FAC00EF4E0950B2EBA2FA02D0B01B90154
:1006C00090010C01CA01A0011124FF27591B99F0C8
:1006D000593F50F4503E68F11A16F040A22F232FD4
:1006E000342F4427585FF3CF469537952795A79524
:1006F000F0405395C9F77EF41F16BA0B620B730BCB
:10070000840BBAF09150A1F0FF0FBB1F661F771F3B
:10071000881FC2F70EC0BA0F621F731F841F48F4F0
:10072000879577956795B795F7959E3F08F0B3CF76
:100730009395880F08F09927EE0F97958795089560
:1007400098D088F09F5790F0B92F9927B751A0F013
:10075000D1F0660F771F881F991F1AF0BA95C9F755
:1007600012C0B13081F09FD0B1E008959CC0672FD6
:10077000782F8827B85F39F0B93FCCF38695779505
:100780006795B395D9F73EF49095809570956195EE
:100790007F4F8F4F9F4F0895E89409C097FB3EF419
:1007A00090958095709561957F4F8F4F9F4F9923BE
:1007B000A9F0F92F96E9BB279395F695879577953C
:1007C0006795B795F111F8CFFAF4BB0F11F460FFFC
:1007D0001BC06F5F7F4F8F4F9F4F16C0882311F054
:1007E00096E911C0772321F09EE8872F762F05C068
:1007F000662371F096E8862F70E060E02AF09A9503
:10080000660F771F881FDAF7880F9695879597F9F7
:10081000089597F99F6780E870E060E008959FEF82
:1008200080EC089500240A94161617061806090687
:10083000089500240A941216130614060506089556
:10084000092E0394000C11F4882352F0BB0F40F4DE
:10085000BF2B11F460FF04C06F5F7F4F8F4F9F4F1E
:10086000089557FD9058440F551F59F05F3F71F0A0
:100870004795880F97FB991F61F09F3F79F0879507
:100880000895121613061406551FF2CF4695F1DF90
:1008900008C0161617061806991FF1CF8695710520
:1008A000610508940895E894BB2766277727CB0154
:1008B00097F908950BD0C4CFB5DF28F0BADF18F050
:1008C000952309F0A6CFABCF1124EECFCADFA0F35A
:1008D000959FD1F3950F50E0551F629FF001729FD5
:1008E000BB27F00DB11D639FAA27F00DB11DAA1FF4
:1008F000649F6627B00DA11D661F829F2227B00D41
:10090000A11D621F739FB00DA11D621F839FA00DCB
:10091000611D221F749F3327A00D611D231F849F1B
:10092000600D211D822F762F6A2F11249F57504072
:100930008AF0E1F088234AF0EE0FFF1FBB1F661F0D
:10094000771F881F91505040A9F79E3F510570F0C6
:1009500060CFAACF5F3FECF3983EDCF386957795A6
:100960006795B795F795E7959F5FC1F7FE2B880FC1
:10097000911D9695879597F9089597FB072E16F484
:10098000009407D077FD09D00E94D10407FC05D060
:100990003EF4909581959F4F0895709561957F4F96
:1009A0000895AA1BBB1B51E107C0AA1FBB1FA617B6
:1009B000B70710F0A61BB70B881F991F5A95A9F708
:0E09C00080959095BC01CD010895F894FFCF6D
:00000001FF
