:100000000C9466000C9483000C9483000C94830081
:100010000C9483000C9483000C9483000C94830054
:100020000C9483000C9483000C9483000C94830044
:100030000C9483000C9483000C9483000C94830034
:100040000C9483000C9483000C9483000C94830024
:100050000C9483000C9483000C9483000C94C402D1
:100060000C9483000C9483000C9483000C94830004
:100070000C9483000C94B0020C9483000C948300C5
:100080000C9483000C9483000C9483000C948300E4
:100090000C9483000C9483000C9483000C948300D4
:1000A0000C9483000C9483000C9483008E009F00BA
:1000B000B000C100D200E300F40005012A013301C1
:1000C0003C0145014E0157016001690111241FBE29
:1000D000CFEFDAE0DEBFCDBF21E0A6E0B1E001C0A6
:1000E0001D92AF32B207E1F711E0A0E0B1E0ECE61B
:1000F000FCE002C005900D92A630B107D9F70E942E
:1001000021020C9434060C9400008830910508F00C
:100110008CC0FC01EA5AFF4F0C94F804EBE7F0E0C6
:1001200080818F7D8083ECE7F0E080818B7F80830E
:1001300080818D7F808380818E7F80830895EBE72F
:10014000F0E080818F7D8083ECE7F0E080818B7F21
:10015000808380818D7F808380818160808308950A
:10016000EBE7F0E080818F7D8083ECE7F0E0808139
:100170008460808380818D7F808380818E7F808377
:100180000895EBE7F0E080818F7D8083ECE7F0E07D
:1001900080818460808380818D7F80838081816085
:1001A00080830895EBE7F0E080818F7D8083ECE72A
:1001B000F0E08081846080838081826080838081A0
:1001C0008E7F80830895EBE7F0E0808180628083FA
:1001D000ECE7F0E080818B7F808380818D7F80835E
:1001E00080818E7F80830895EBE7F0E080818062DC
:1001F0008083ECE7F0E080818B7F808380818D7F3E
:1002000080838081816080830895EBE7F0E08081C6
:100210008F7D8083ECE7F0E0808184608083808143
:10022000826080838081816080830895809106014F
:1002300090910701892B09F48AC08091290190913E
:100240002A018830910508F04CC0FC01E25AFF4FAA
:100250000C94F804809178009091790090931701A4
:10026000809316013EC08091780090917900909320
:1002700015018093140135C0809178009091790028
:1002800090931301809312012CC08091780090917B
:100290007900909311018093100123C08091780020
:1002A0009091790090930F0180930E011AC0809174
:1002B00078009091790090930D0180930C0111C00A
:1002C000809178009091790090930B0180930A01BE
:1002D00008C08091780090917900909309018093F3
:1002E0000801EAE7F0E080818F77808380818F7B4F
:1002F000808380818F7D808380818F7E80838091C9
:10030000290190912A018830910578F4019687702F
:100310009078992324F40197886F9F6F01969093AA
:100320002A01809329010E948500EAE7F0E080819C
:100330008062808380818068808380818064808304
:100340008081806180831092070110920601809164
:1003500016019091170190931A01809319018091D1
:1003600014019091150190931C0180931B018091C1
:1003700012019091130190931E0180931D018091B1
:100380001001909111019093200180931F018091A1
:100390000E0190910F019093220180932101809191
:1003A0000C0190910D019093240180932301809181
:1003B0000A0190910B019093260180932501809171
:1003C00008019091090190932801809327010895D5
:1003D000CF92DF92EF92FF926A017B01813019F098
:1003E000823021F005C02A9A2B9A02C02A982B98B5
:1003F000609188007091890080E090E00E94F30392
:10040000A70196010E9481040E94C70370938B008C
:1004100060938A00609196007091970080E090E070
:100420000E94F303A70196010E9481040E94C70362
:1004300070939B0060939A00FF90EF90DF90CF90B5
:1004400008957894E1E8F0E0808180618083808184
:1004500088608083A0E8B0E08C9182608C938C915E
:1004600081608C938C9180628C938C918F7E8C9325
:1004700080818B7F808380818D7F8083808181607C
:1004800080838FEF9FEF9093890080938800109274
:100490008B0010928A00E1E9F0E020812061208346
:1004A000208128602083A0E9B0E02C9122602C9369
:1004B0002C912E7F2C932C9120682C932C912F7BA8
:1004C0002C9320812B7F208320812D7F20832081EE
:1004D000216020839093970080939600109299005A
:1004E0001092980085B58B7F85BD85B5826085BDEE
:1004F00085B5816085BD85B5886085BD84B58D7FF6
:1005000084BD84B5816084BD84B58F7D84BD84B590
:100510008F7E84BDEEE6F0E08081816080838EE492
:1005200087BD18BC269A3E9A229A239A209AC1E047
:10053000809118018823E1F3109218010E9416019E
:1005400085B18C2785B989E191E00E94DA02FC012E
:10055000468157816085718580810E94E801E8CFDE
:100560001F920F920FB60F9211248F939F9381E0E9
:1005700090E090930701809306019F918F910F90D7
:100580000FBE0F901F9018951F920F920FB60F92EB
:1005900011248F939F9381E0809318016E9A9EB1EE
:1005A00080E489278EB99F918F910F900FBE0F9095
:1005B0001F9018950F931F93CF93DF938C018AE0C0
:1005C00090E00E940D05EC01F801208131818281CB
:1005D0009381821793075CF481E090E0998388838C
:1005E0001A821B821C821D82808191810BC082E055
:1005F00090E0998388831A821B821C821D82F801F5
:10060000828193818032F3E09F0778F48D3B22E072
:100610009207F0F1198218821A821B821C821D82B5
:100620001E821F821886198647C028813981213091
:10063000310519F422E030E002C021E030E03983D6
:1006400028834FEF53E0481B590B9A01A3EEB5E204
:100650000E94FE04481B590BBA0176956795860FD8
:10066000971FBC01660F672F661F770B719580E09F
:1006700090E00E94F3039B01AC0160E070E080E831
:100680009FE30E9462036E837F838887998714C0EB
:100690006CEB72E00E94E40480E090E00E94F303BF
:1006A0009B01AC0160E070E080E89FE30E94620380
:1006B0006E837F8388879987CE01DF91CF911F91C9
:1006C0000F9108955058BB27AA270ED0E0C0D1D073
:1006D00030F0D6D020F031F49F3F11F41EF4C6C0A4
:1006E0000EF4E095E7FBBCC0E92FE2D080F3BA1727
:1006F000620773078407950718F071F49EF5FAC036
:100700000EF4E0950B2EBA2FA02D0B01B90190012C
:100710000C01CA01A0011124FF27591B99F0593F70
:1007200050F4503E68F11A16F040A22F232F342FB8
:100730004427585FF3CF469537952795A795F04006
:100740005395C9F77EF41F16BA0B620B730B840B1B
:10075000BAF09150A1F0FF0FBB1F661F771F881FD3
:10076000C2F70EC0BA0F621F731F841F48F487952B
:1007700077956795B795F7959E3F08F0B3CF93951A
:10078000880F08F09927EE0F97958795089598D0D0
:1007900088F09F5790F0B92F9927B751A0F0D1F06A
:1007A000660F771F881F991F1AF0BA95C9F712C0F4
:1007B000B13081F09FD0B1E008959CC0672F782FB1
:1007C0008827B85F39F0B93FCCF386957795679560
:1007D000B395D9F73EF490958095709561957F4FCC
:1007E0008F4F9F4F0895E89409C097FB3EF4909572
:1007F0008095709561957F4F8F4F9F4F9923A9F0FA
:10080000F92F96E9BB279395F69587957795679588
:10081000B795F111F8CFFAF4BB0F11F460FF1BC0CC
:100820006F5F7F4F8F4F9F4F16C0882311F096E95F
:1008300011C0772321F09EE8872F762F05C066230D
:1008400071F096E8862F70E060E02AF09A95660FC6
:10085000771F881FDAF7880F9695879597F908957F
:1008600097F99F6780E870E060E008959FEF80EC63
:10087000089500240A941616170618060906089506
:1008800000240A9412161306140605060895092E6C
:100890000394000C11F4882352F0BB0F40F4BF2BDB
:1008A00011F460FF04C06F5F7F4F8F4F9F4F08951B
:1008B00057FD9058440F551F59F05F3F71F0479511
:1008C000880F97FB991F61F09F3F79F087950895F6
:1008D000121613061406551FF2CF4695F1DF08C015
:1008E000161617061806991FF1CF86957105610532
:1008F00008940895E894BB2766277727CB0197F9DA
:1009000008950BD0C4CFB5DF28F0BADF18F09523D7
:1009100009F0A6CFABCF1124EECFCADFA0F3959F8D
:10092000D1F3950F50E0551F629FF001729FBB27D6
:10093000F00DB11D639FAA27F00DB11DAA1F649F82
:100940006627B00DA11D661F829F2227B00DA11D35
:10095000621F739FB00DA11D621F839FA00D611DBB
:10096000221F749F3327A00D611D231F849F600DDC
:10097000211D822F762F6A2F11249F5750408AF015
:10098000E1F088234AF0EE0FFF1FBB1F661F771FA1
:10099000881F91505040A9F79E3F510570F060CFDD
:1009A000AACF5F3FECF3983EDCF386957795679589
:1009B000B795F795E7959F5FC1F7FE2B880F911DBF
:1009C0009695879597F90895AA1BBB1B51E107C01F
:1009D000AA1FBB1FA617B70710F0A61BB70B881FCF
:1009E000991F5A95A9F780959095BC01CD0108955E
:1009F000EE0FFF1F0590F491E02D0994A29FB00126
:100A0000B39FC001A39F700D811D1124911DB29F42
:100A1000700D811D1124911D0895CF93DF938230B5
:100A2000910510F482E090E0E0912D01F0912E010B
:100A300020E030E0A0E0B0E0309739F14081518112
:100A400048175907B8F04817590771F48281938104
:100A5000109729F013969C938E9312972CC0909325
:100A60002E0180932D0127C02115310531F0421749
:100A7000530718F0A901DB0101C0EF019A01BD0184
:100A8000DF010280F381E02DD7CF21153105F9F088
:100A9000281B390B2430310580F48A819B81611534
:100AA000710521F0FB019383828304C090932E0192
:100AB00080932D01FE01329644C0FE01E20FF31F28
:100AC0008193919322503109398328833AC0209130
:100AD0002B0130912C01232B41F420910201309104
:100AE000030130932C0120932B01209100013091C0
:100AF00001012115310541F42DB73EB740910401A4
:100B000050910501241B350BE0912B01F0912C0134
:100B1000E217F307A0F42E1B3F0B2817390778F0D4
:100B2000AC014E5F5F4F2417350748F04E0F5F1F33
:100B300050932C0140932B018193919302C0E0E0EC
:100B4000F0E0CF01DF91CF910895CF93DF9300972D
:100B500009F487C0FC01329713821282C0912D01E3
:100B6000D0912E01209781F420813181280F391FE7
:100B700080912B0190912C018217930779F5F093C6
:100B80002C01E0932B016DC0DE0120E030E0AE17B8
:100B9000BF0750F412964D915C9113979D0141153A
:100BA000510509F1DA01F3CFB383A283408151816A
:100BB000840F951F8A179B0771F48D919C91119753
:100BC000840F951F02969183808312968D919C913C
:100BD0001397938382832115310529F4F0932E0115
:100BE000E0932D013EC0D9011396FC93EE9312972A
:100BF0004D915D91A40FB51FEA17FB0779F4808131
:100C00009181840F951F0296D90111969C938E9322
:100C10008281938113969C938E931297E0E0F0E08B
:100C20008A819B81009719F0FE01EC01F9CFCE017A
:100C3000029628813981820F931F20912B013091D8
:100C40002C012817390769F4309729F410922E01E6
:100C500010922D0102C013821282D0932C01C093F6
:0C0C60002B01DF91CF910895F894FFCF95
:060C6C0000002F01200032
:00000001FF
