:100000000C9466000C9478000C9478000C947800A2
:100010000C9478000C9478000C9478000C94780080
:100020000C9478000C9478000C9478000C94780070
:100030000C9478000C9478000C9478000C94780060
:100040000C9478000C9478000C9478000C94780050
:100050000C9478000C9478000C9478000C94780040
:100060000C9478000C9478000C9478000C94780030
:100070000C9478000C940E030C9478000C94780087
:100080000C9478000C9478000C9478000C94780010
:100090000C9478000C9478000C9478000C94780000
:1000A0000C9478000C9478000C94780083009400F1
:1000B000A500B600C700D800E900FA001F0128011A
:1000C00031013A0143014C0155015E0111241FBE6B
:1000D000CFEFDAE0DEBFCDBF21E0A0E0B1E001C0AC
:1000E0001D92A932B207E1F70E9416020C94D204C5
:1000F0000C9400008830910508F08CC0FC01EA5A8D
:10010000FF4F0C94B804EBE7F0E080818F7D808393
:10011000ECE7F0E080818B7F808380818D7F80831E
:1001200080818E7F80830895EBE7F0E080818F7D72
:100130008083ECE7F0E080818B7F808380818D7FFE
:1001400080838081816080830895EBE7F0E0808187
:100150008F7D8083ECE7F0E0808184608083808104
:100160008D7F808380818E7F80830895EBE7F0E030
:1001700080818F7D8083ECE7F0E0808184608083E4
:1001800080818D7F80838081816080830895EBE70B
:10019000F0E080818F7D8083ECE7F0E080818460F7
:1001A000808380818260808380818E7F80830895B8
:1001B000EBE7F0E0808180628083ECE7F0E0808113
:1001C0008B7F808380818D7F808380818E7F808301
:1001D0000895EBE7F0E0808180628083ECE7F0E057
:1001E00080818B7F808380818D7F8083808181600F
:1001F00080830895EBE7F0E080818F7D8083ECE7DA
:10020000F0E080818460808380818260808380814F
:100210008160808308958091000190910101892B74
:1002200009F48AC0809127019091280188309105B6
:1002300008F04CC0FC01E25AFF4F0C94B8048091C6
:1002400078009091790090931101809310013EC045
:10025000809178009091790090930F0180930E0126
:1002600035C0809178009091790090930D01809332
:100270000C012CC0809178009091790090930B0133
:1002800080930A0123C08091780090917900909327
:100290000901809308011AC080917800909179003B
:1002A000909307018093060111C08091780090918E
:1002B0007900909305018093040108C08091780033
:1002C000909179009093030180930201EAE7F0E0B6
:1002D00080818F77808380818F7B808380818F7DF9
:1002E000808380818F7E8083809127019091280177
:1002F0008830910578F4019687709078992324F4DA
:100300000197886F9F6F0196909328018093270132
:100310000E947A00EAE7F0E0808180628083808139
:100320008068808380818064808380818061808315
:100330001092010110920001809110019091110121
:10034000909318018093170180910E0190910F01F5
:1003500090931A018093190180910C0190910D01E5
:1003600090931C0180931B0180910A0190910B01D5
:1003700090931E0180931D018091080190910901C5
:100380009093200180931F018091060190910701B5
:1003900090932201809321018091040190910501A5
:1003A0009093240180932301809102019091030195
:1003B00090932601809325010895CF92DF92EF92CA
:1003C000FF926A017B01813019F0823021F005C073
:1003D0002A9A2B9A02C02A982B98609188007091D3
:1003E000890080E090E00E94B303A70196010E947B
:1003F00041040E94870370938B0060938A00609190
:1004000096007091970080E090E00E94B303A701EE
:1004100096010E9441040E94870370939B006093A1
:100420009A00FF90EF90DF90CF900895E1E8F0E020
:10043000808180618083808188608083A0E8B0E0D3
:100440008C9182608C938C9181608C938C91806272
:100450008C938C918F7E8C9380818B7F8083808125
:100460008D7F80838081816080838FEF9FEF909369
:1004700089008093880010928B0010928A00E1E935
:10048000F0E0208120612083208128602083A0E982
:10049000B0E02C9122602C932C912E7F2C932C91E8
:1004A00020682C932C912F7B2C9320812B7F2083F1
:1004B00020812D7F208320812160208390939700CD
:1004C000809396001092990010929800269A3E9A76
:1004D000229A239A6894882486F807E111E0C9E1FA
:1004E000D1E06894772471F80F2EAA24AA94F3E03F
:1004F000BF2EF02D0F2EFFEDCF2ED12CF02D0F2E75
:10050000FCEBEF2EF2E0FF2EF02D992493942FEFC9
:1005100031EE84E0215030408040E1F700C000001F
:100520006E9A8EB188258EB90E940B01F8018081E8
:10053000918128813981281739071CF4909216017E
:1005400003C070921601C9018032F3E09F073CF4AA
:100550008D3B22E0920754F110921601D8CF2091E2
:100560001601213011F4272D01C0292D20931601E9
:10057000F501E81BF90BCF01B6010E94A4048827FE
:1005800077FD8095982F0E94B5039B01AC0160E038
:1005900070E080E89FE30E94220360931201709351
:1005A0001301809314019093150119C0B7010E94A3
:1005B000A404882777FD8095982F0E94B5039B019E
:1005C000AC0160E070E080E89FE30E94220360934A
:1005D000120170931301809314019093150180917F
:1005E0001601813019F0823069F091CF40911201EB
:1005F00050911301609114017091150181E00E94E6
:10060000DD0183CF409112015091130160911401DB
:1006100070911501872D0E94DD0177CF1F920F92F7
:100620000FB60F9211248F939F9381E090E09093E7
:100630000101809300019F918F910F900FBE0F9049
:100640001F9018955058BB27AA270ED0E0C0D1D0D4
:1006500030F0D6D020F031F49F3F11F41EF4C6C024
:100660000EF4E095E7FBBCC0E92FE2D080F3BA17A7
:10067000620773078407950718F071F49EF5FAC0B6
:100680000EF4E0950B2EBA2FA02D0B01B9019001AD
:100690000C01CA01A0011124FF27591B99F0593FF1
:1006A00050F4503E68F11A16F040A22F232F342F39
:1006B0004427585FF3CF469537952795A795F04087
:1006C0005395C9F77EF41F16BA0B620B730B840B9C
:1006D000BAF09150A1F0FF0FBB1F661F771F881F54
:1006E000C2F70EC0BA0F621F731F841F48F48795AC
:1006F00077956795B795F7959E3F08F0B3CF93959B
:10070000880F08F09927EE0F97958795089598D050
:1007100088F09F5790F0B92F9927B751A0F0D1F0EA
:10072000660F771F881F991F1AF0BA95C9F712C074
:10073000B13081F09FD0B1E008959CC0672F782F31
:100740008827B85F39F0B93FCCF3869577956795E0
:10075000B395D9F73EF490958095709561957F4F4C
:100760008F4F9F4F0895E89409C097FB3EF49095F2
:100770008095709561957F4F8F4F9F4F9923A9F07A
:10078000F92F96E9BB279395F69587957795679509
:10079000B795F111F8CFFAF4BB0F11F460FF1BC04D
:1007A0006F5F7F4F8F4F9F4F16C0882311F096E9E0
:1007B00011C0772321F09EE8872F762F05C066238E
:1007C00071F096E8862F70E060E02AF09A95660F47
:1007D000771F881FDAF7880F9695879597F9089500
:1007E00097F99F6780E870E060E008959FEF80ECE4
:1007F000089500240A941616170618060906089587
:1008000000240A9412161306140605060895092EEC
:100810000394000C11F4882352F0BB0F40F4BF2B5B
:1008200011F460FF04C06F5F7F4F8F4F9F4F08959B
:1008300057FD9058440F551F59F05F3F71F0479591
:10084000880F97FB991F61F09F3F79F08795089576
:10085000121613061406551FF2CF4695F1DF08C095
:10086000161617061806991FF1CF869571056105B2
:1008700008940895E894BB2766277727CB0197F95A
:1008800008950BD0C4CFB5DF28F0BADF18F0952358
:1008900009F0A6CFABCF1124EECFCADFA0F3959F0E
:1008A000D1F3950F50E0551F629FF001729FBB2757
:1008B000F00DB11D639FAA27F00DB11DAA1F649F03
:1008C0006627B00DA11D661F829F2227B00DA11DB6
:1008D000621F739FB00DA11D621F839FA00D611D3C
:1008E000221F749F3327A00D611D231F849F600D5D
:1008F000211D822F762F6A2F11249F5750408AF096
:10090000E1F088234AF0EE0FFF1FBB1F661F771F21
:10091000881F91505040A9F79E3F510570F060CF5D
:10092000AACF5F3FECF3983EDCF386957795679509
:10093000B795F795E7959F5FC1F7FE2B880F911D3F
:100940009695879597F9089597FB072E16F40094CE
:1009500007D077FD09D00E94BE0407FC05D03EF405
:10096000909581959F4F0895709561957F4F08955B
:10097000EE0FFF1F0590F491E02D0994AA1BBB1BFD
:1009800051E107C0AA1FBB1FA617B70710F0A61B8F
:10099000B70B881F991F5A95A9F780959095BC01B0
:0809A000CD010895F894FFCF8A
:00000001FF
